{
  "contractName": "MultisigTournament",
  "abi": [
    {
      "anonymous": false,
      "inputs": [
        {
          "indexed": false,
          "internalType": "address",
          "name": "user",
          "type": "address"
        },
        {
          "indexed": false,
          "internalType": "string",
          "name": "tournament_id",
          "type": "string"
        },
        {
          "indexed": false,
          "internalType": "uint256",
          "name": "game_id",
          "type": "uint256"
        }
      ],
      "name": "Approved",
      "type": "event"
    },
    {
      "anonymous": false,
      "inputs": [
        {
          "indexed": false,
          "internalType": "string",
          "name": "tournament_id",
          "type": "string"
        },
        {
          "indexed": false,
          "internalType": "uint256",
          "name": "game_id",
          "type": "uint256"
        },
        {
          "indexed": false,
          "internalType": "string",
          "name": "game_type",
          "type": "string"
        },
        {
          "indexed": false,
          "internalType": "string",
          "name": "loser_name",
          "type": "string"
        },
        {
          "indexed": false,
          "internalType": "uint256",
          "name": "loser_score",
          "type": "uint256"
        },
        {
          "indexed": false,
          "internalType": "string",
          "name": "winner_name",
          "type": "string"
        },
        {
          "indexed": false,
          "internalType": "uint256",
          "name": "winner_score",
          "type": "uint256"
        },
        {
          "indexed": false,
          "internalType": "address",
          "name": "winner",
          "type": "address"
        },
        {
          "indexed": false,
          "internalType": "address",
          "name": "loser",
          "type": "address"
        }
      ],
      "name": "GameAdded",
      "type": "event"
    },
    {
      "anonymous": false,
      "inputs": [
        {
          "indexed": false,
          "internalType": "string",
          "name": "tournament_id",
          "type": "string"
        },
        {
          "indexed": false,
          "internalType": "uint256",
          "name": "game_id",
          "type": "uint256"
        }
      ],
      "name": "GameWasFullyApproved",
      "type": "event"
    },
    {
      "inputs": [
        {
          "internalType": "string",
          "name": "",
          "type": "string"
        },
        {
          "internalType": "uint256",
          "name": "",
          "type": "uint256"
        }
      ],
      "name": "tournaments",
      "outputs": [
        {
          "internalType": "string",
          "name": "tournament_id",
          "type": "string"
        },
        {
          "internalType": "uint256",
          "name": "game_id",
          "type": "uint256"
        },
        {
          "internalType": "string",
          "name": "game_type",
          "type": "string"
        },
        {
          "internalType": "string",
          "name": "loser_name",
          "type": "string"
        },
        {
          "internalType": "uint256",
          "name": "loser_score",
          "type": "uint256"
        },
        {
          "internalType": "string",
          "name": "winner_name",
          "type": "string"
        },
        {
          "internalType": "uint256",
          "name": "winner_score",
          "type": "uint256"
        },
        {
          "internalType": "bool",
          "name": "winnerApproved",
          "type": "bool"
        },
        {
          "internalType": "bool",
          "name": "loserApproved",
          "type": "bool"
        },
        {
          "internalType": "address",
          "name": "winner",
          "type": "address"
        },
        {
          "internalType": "address",
          "name": "loser",
          "type": "address"
        }
      ],
      "stateMutability": "view",
      "type": "function",
      "constant": true
    },
    {
      "inputs": [
        {
          "internalType": "string",
          "name": "_tournament_id",
          "type": "string"
        },
        {
          "internalType": "uint256",
          "name": "_game_id",
          "type": "uint256"
        }
      ],
      "name": "approve",
      "outputs": [],
      "stateMutability": "nonpayable",
      "type": "function"
    },
    {
      "inputs": [
        {
          "internalType": "string",
          "name": "_tournament_id",
          "type": "string"
        },
        {
          "internalType": "uint256",
          "name": "_game_id",
          "type": "uint256"
        },
        {
          "internalType": "string",
          "name": "_game_type",
          "type": "string"
        },
        {
          "internalType": "string",
          "name": "_loser_name",
          "type": "string"
        },
        {
          "internalType": "uint256",
          "name": "_loser_score",
          "type": "uint256"
        },
        {
          "internalType": "string",
          "name": "_winner_name",
          "type": "string"
        },
        {
          "internalType": "uint256",
          "name": "_winner_score",
          "type": "uint256"
        },
        {
          "internalType": "address",
          "name": "_winner",
          "type": "address"
        },
        {
          "internalType": "address",
          "name": "_loser",
          "type": "address"
        }
      ],
      "name": "execute",
      "outputs": [
        {
          "internalType": "bool",
          "name": "",
          "type": "bool"
        }
      ],
      "stateMutability": "nonpayable",
      "type": "function"
    },
    {
      "inputs": [
        {
          "internalType": "string",
          "name": "_tournament_id",
          "type": "string"
        },
        {
          "internalType": "uint256",
          "name": "_game_id",
          "type": "uint256"
        }
      ],
      "name": "getApproval",
      "outputs": [
        {
          "internalType": "bool",
          "name": "",
          "type": "bool"
        }
      ],
      "stateMutability": "view",
      "type": "function",
      "constant": true
    },
    {
      "inputs": [
        {
          "internalType": "string",
          "name": "_tournament_id",
          "type": "string"
        },
        {
          "internalType": "uint256",
          "name": "_game_id",
          "type": "uint256"
        },
        {
          "internalType": "string",
          "name": "_game_type",
          "type": "string"
        },
        {
          "internalType": "string",
          "name": "_loser_name",
          "type": "string"
        },
        {
          "internalType": "uint256",
          "name": "_loser_score",
          "type": "uint256"
        },
        {
          "internalType": "string",
          "name": "_winner_name",
          "type": "string"
        },
        {
          "internalType": "uint256",
          "name": "_winner_score",
          "type": "uint256"
        },
        {
          "internalType": "address",
          "name": "_winner",
          "type": "address"
        },
        {
          "internalType": "address",
          "name": "_loser",
          "type": "address"
        }
      ],
      "name": "addGame",
      "outputs": [],
      "stateMutability": "nonpayable",
      "type": "function"
    },
    {
      "inputs": [
        {
          "internalType": "string",
          "name": "_tournament_id",
          "type": "string"
        },
        {
          "internalType": "uint256",
          "name": "_game_id",
          "type": "uint256"
        }
      ],
      "name": "getGame",
      "outputs": [
        {
          "components": [
            {
              "internalType": "string",
              "name": "tournament_id",
              "type": "string"
            },
            {
              "internalType": "uint256",
              "name": "game_id",
              "type": "uint256"
            },
            {
              "internalType": "string",
              "name": "game_type",
              "type": "string"
            },
            {
              "internalType": "string",
              "name": "loser_name",
              "type": "string"
            },
            {
              "internalType": "uint256",
              "name": "loser_score",
              "type": "uint256"
            },
            {
              "internalType": "string",
              "name": "winner_name",
              "type": "string"
            },
            {
              "internalType": "uint256",
              "name": "winner_score",
              "type": "uint256"
            },
            {
              "internalType": "bool",
              "name": "winnerApproved",
              "type": "bool"
            },
            {
              "internalType": "bool",
              "name": "loserApproved",
              "type": "bool"
            },
            {
              "internalType": "address",
              "name": "winner",
              "type": "address"
            },
            {
              "internalType": "address",
              "name": "loser",
              "type": "address"
            }
          ],
          "internalType": "struct MultisigTournament.Tournament",
          "name": "",
          "type": "tuple"
        }
      ],
      "stateMutability": "view",
      "type": "function",
      "constant": true
    },
    {
      "inputs": [
        {
          "internalType": "string",
          "name": "_tournament_id",
          "type": "string"
        },
        {
          "internalType": "uint256",
          "name": "_game_id",
          "type": "uint256"
        }
      ],
      "name": "getTournamentInfo",
      "outputs": [
        {
          "components": [
            {
              "internalType": "string",
              "name": "tournament_id",
              "type": "string"
            },
            {
              "internalType": "uint256",
              "name": "game_id",
              "type": "uint256"
            },
            {
              "internalType": "string",
              "name": "game_type",
              "type": "string"
            },
            {
              "internalType": "string",
              "name": "loser_name",
              "type": "string"
            },
            {
              "internalType": "uint256",
              "name": "loser_score",
              "type": "uint256"
            },
            {
              "internalType": "string",
              "name": "winner_name",
              "type": "string"
            },
            {
              "internalType": "uint256",
              "name": "winner_score",
              "type": "uint256"
            },
            {
              "internalType": "bool",
              "name": "winnerApproved",
              "type": "bool"
            },
            {
              "internalType": "bool",
              "name": "loserApproved",
              "type": "bool"
            },
            {
              "internalType": "address",
              "name": "winner",
              "type": "address"
            },
            {
              "internalType": "address",
              "name": "loser",
              "type": "address"
            }
          ],
          "internalType": "struct MultisigTournament.Tournament",
          "name": "",
          "type": "tuple"
        }
      ],
      "stateMutability": "view",
      "type": "function",
      "constant": true
    }
  ],
  "bytecode": "0x608060405234801561001057600080fd5b506129e4806100206000396000f3fe608060405234801561001057600080fd5b506004361061007d5760003560e01c8063407e134f1161005b578063407e134f14610112578063636d07b81461014c5780638fc3afcf14610168578063ff294f45146101985761007d565b80630be2ea76146100825780631fab4383146100b257806327c2e3ac146100e2575b600080fd5b61009c600480360381019061009791906121d8565b6101b4565b6040516100a9919061242b565b60405180910390f35b6100cc60048036038101906100c791906121d8565b610547565b6040516100d9919061245c565b60405180910390f35b6100fc60048036038101906100f791906124a3565b6108eb565b604051610109919061245c565b60405180910390f35b61012c600480360381019061012791906121d8565b611012565b6040516101439b9a99989796959493929190612645565b60405180910390f35b610166600480360381019061016191906124a3565b611309565b005b610182600480360381019061017d91906121d8565b6115ee565b60405161018f919061242b565b60405180910390f35b6101b260048036038101906101ad91906121d8565b611981565b005b6101bc611f1b565b6000836040516101cc9190612748565b90815260200160405180910390206000838152602001908152602001600020604051806101600160405290816000820180546102079061278e565b80601f01602080910402602001604051908101604052809291908181526020018280546102339061278e565b80156102805780601f1061025557610100808354040283529160200191610280565b820191906000526020600020905b81548152906001019060200180831161026357829003601f168201915b50505050508152602001600182015481526020016002820180546102a39061278e565b80601f01602080910402602001604051908101604052809291908181526020018280546102cf9061278e565b801561031c5780601f106102f15761010080835404028352916020019161031c565b820191906000526020600020905b8154815290600101906020018083116102ff57829003601f168201915b505050505081526020016003820180546103359061278e565b80601f01602080910402602001604051908101604052809291908181526020018280546103619061278e565b80156103ae5780601f10610383576101008083540402835291602001916103ae565b820191906000526020600020905b81548152906001019060200180831161039157829003601f168201915b50505050508152602001600482015481526020016005820180546103d19061278e565b80601f01602080910402602001604051908101604052809291908181526020018280546103fd9061278e565b801561044a5780601f1061041f5761010080835404028352916020019161044a565b820191906000526020600020905b81548152906001019060200180831161042d57829003601f168201915b50505050508152602001600682015481526020016007820160009054906101000a900460ff161515151581526020016007820160019054906101000a900460ff161515151581526020016007820160029054906101000a900473ffffffffffffffffffffffffffffffffffffffff1673ffffffffffffffffffffffffffffffffffffffff1673ffffffffffffffffffffffffffffffffffffffff1681526020016008820160009054906101000a900473ffffffffffffffffffffffffffffffffffffffff1673ffffffffffffffffffffffffffffffffffffffff1673ffffffffffffffffffffffffffffffffffffffff1681525050905092915050565b60008060008460405161055a9190612748565b90815260200160405180910390206000848152602001908152602001600020604051806101600160405290816000820180546105959061278e565b80601f01602080910402602001604051908101604052809291908181526020018280546105c19061278e565b801561060e5780601f106105e35761010080835404028352916020019161060e565b820191906000526020600020905b8154815290600101906020018083116105f157829003601f168201915b50505050508152602001600182015481526020016002820180546106319061278e565b80601f016020809104026020016040519081016040528092919081815260200182805461065d9061278e565b80156106aa5780601f1061067f576101008083540402835291602001916106aa565b820191906000526020600020905b81548152906001019060200180831161068d57829003601f168201915b505050505081526020016003820180546106c39061278e565b80601f01602080910402602001604051908101604052809291908181526020018280546106ef9061278e565b801561073c5780601f106107115761010080835404028352916020019161073c565b820191906000526020600020905b81548152906001019060200180831161071f57829003601f168201915b505050505081526020016004820154815260200160058201805461075f9061278e565b80601f016020809104026020016040519081016040528092919081815260200182805461078b9061278e565b80156107d85780601f106107ad576101008083540402835291602001916107d8565b820191906000526020600020905b8154815290600101906020018083116107bb57829003601f168201915b50505050508152602001600682015481526020016007820160009054906101000a900460ff161515151581526020016007820160019054906101000a900460ff161515151581526020016007820160029054906101000a900473ffffffffffffffffffffffffffffffffffffffff1673ffffffffffffffffffffffffffffffffffffffff1673ffffffffffffffffffffffffffffffffffffffff1681526020016008820160009054906101000a900473ffffffffffffffffffffffffffffffffffffffff1673ffffffffffffffffffffffffffffffffffffffff1673ffffffffffffffffffffffffffffffffffffffff168152505090508060e0015180156108e257508061010001515b91505092915050565b60008989600080836040516109009190612748565b908152602001604051809103902060008381526020019081526020016000206040518061016001604052908160008201805461093b9061278e565b80601f01602080910402602001604051908101604052809291908181526020018280546109679061278e565b80156109b45780601f10610989576101008083540402835291602001916109b4565b820191906000526020600020905b81548152906001019060200180831161099757829003601f168201915b50505050508152602001600182015481526020016002820180546109d79061278e565b80601f0160208091040260200160405190810160405280929190818152602001828054610a039061278e565b8015610a505780601f10610a2557610100808354040283529160200191610a50565b820191906000526020600020905b815481529060010190602001808311610a3357829003601f168201915b50505050508152602001600382018054610a699061278e565b80601f0160208091040260200160405190810160405280929190818152602001828054610a959061278e565b8015610ae25780601f10610ab757610100808354040283529160200191610ae2565b820191906000526020600020905b815481529060010190602001808311610ac557829003601f168201915b5050505050815260200160048201548152602001600582018054610b059061278e565b80601f0160208091040260200160405190810160405280929190818152602001828054610b319061278e565b8015610b7e5780601f10610b5357610100808354040283529160200191610b7e565b820191906000526020600020905b815481529060010190602001808311610b6157829003601f168201915b50505050508152602001600682015481526020016007820160009054906101000a900460ff161515151581526020016007820160019054906101000a900460ff161515151581526020016007820160029054906101000a900473ffffffffffffffffffffffffffffffffffffffff1673ffffffffffffffffffffffffffffffffffffffff1673ffffffffffffffffffffffffffffffffffffffff1681526020016008820160009054906101000a900473ffffffffffffffffffffffffffffffffffffffff1673ffffffffffffffffffffffffffffffffffffffff1673ffffffffffffffffffffffffffffffffffffffff1681525050905080610120015173ffffffffffffffffffffffffffffffffffffffff163373ffffffffffffffffffffffffffffffffffffffff161480610ce4575080610140015173ffffffffffffffffffffffffffffffffffffffff163373ffffffffffffffffffffffffffffffffffffffff16145b610d23576040517f08c379a0000000000000000000000000000000000000000000000000000000008152600401610d1a9061280b565b60405180910390fd5b6000808e604051610d349190612748565b908152602001604051809103902060008e815260200190815260200160002090508060070160009054906101000a900460ff168015610d8157508060070160019054906101000a900460ff165b15610ffc576040518061016001604052808f81526020018e81526020018d81526020018c81526020018b81526020018a81526020018981526020018260070160009054906101000a900460ff16151581526020018260070160019054906101000a900460ff16151581526020018873ffffffffffffffffffffffffffffffffffffffff1681526020018773ffffffffffffffffffffffffffffffffffffffff1681525060008f604051610e349190612748565b908152602001604051809103902060008f81526020019081526020016000206000820151816000019080519060200190610e6f929190611fa5565b50602082015181600101556040820151816002019080519060200190610e96929190611fa5565b506060820151816003019080519060200190610eb3929190611fa5565b506080820151816004015560a0820151816005019080519060200190610eda929190611fa5565b5060c0820151816006015560e08201518160070160006101000a81548160ff0219169083151502179055506101008201518160070160016101000a81548160ff0219169083151502179055506101208201518160070160026101000a81548173ffffffffffffffffffffffffffffffffffffffff021916908373ffffffffffffffffffffffffffffffffffffffff1602179055506101408201518160080160006101000a81548173ffffffffffffffffffffffffffffffffffffffff021916908373ffffffffffffffffffffffffffffffffffffffff1602179055509050507fcca408d9fdf384851fb3fa05beb22bd47ac8b97e6ccd099a09b9dc69636f1c388e8e604051610fea92919061282b565b60405180910390a16001945050611002565b60009450505b5050509998505050505050505050565b600082805160208101820180518482526020830160208501208183528095505050505050602052806000526040600020600091509150508060000180546110589061278e565b80601f01602080910402602001604051908101604052809291908181526020018280546110849061278e565b80156110d15780601f106110a6576101008083540402835291602001916110d1565b820191906000526020600020905b8154815290600101906020018083116110b457829003601f168201915b5050505050908060010154908060020180546110ec9061278e565b80601f01602080910402602001604051908101604052809291908181526020018280546111189061278e565b80156111655780601f1061113a57610100808354040283529160200191611165565b820191906000526020600020905b81548152906001019060200180831161114857829003601f168201915b50505050509080600301805461117a9061278e565b80601f01602080910402602001604051908101604052809291908181526020018280546111a69061278e565b80156111f35780601f106111c8576101008083540402835291602001916111f3565b820191906000526020600020905b8154815290600101906020018083116111d657829003601f168201915b50505050509080600401549080600501805461120e9061278e565b80601f016020809104026020016040519081016040528092919081815260200182805461123a9061278e565b80156112875780601f1061125c57610100808354040283529160200191611287565b820191906000526020600020905b81548152906001019060200180831161126a57829003601f168201915b5050505050908060060154908060070160009054906101000a900460ff16908060070160019054906101000a900460ff16908060070160029054906101000a900473ffffffffffffffffffffffffffffffffffffffff16908060080160009054906101000a900473ffffffffffffffffffffffffffffffffffffffff1690508b565b6000808a60405161131a9190612748565b908152602001604051809103902060008a815260200190815260200160002060000180546113479061278e565b905014611389576040517f08c379a0000000000000000000000000000000000000000000000000000000008152600401611380906128a7565b60405180910390fd5b6040518061016001604052808a81526020018981526020018881526020018781526020018681526020018581526020018481526020016000151581526020016000151581526020018373ffffffffffffffffffffffffffffffffffffffff1681526020018273ffffffffffffffffffffffffffffffffffffffff1681525060008a6040516114179190612748565b908152602001604051809103902060008a81526020019081526020016000206000820151816000019080519060200190611452929190611fa5565b50602082015181600101556040820151816002019080519060200190611479929190611fa5565b506060820151816003019080519060200190611496929190611fa5565b506080820151816004015560a08201518160050190805190602001906114bd929190611fa5565b5060c0820151816006015560e08201518160070160006101000a81548160ff0219169083151502179055506101008201518160070160016101000a81548160ff0219169083151502179055506101208201518160070160026101000a81548173ffffffffffffffffffffffffffffffffffffffff021916908373ffffffffffffffffffffffffffffffffffffffff1602179055506101408201518160080160006101000a81548173ffffffffffffffffffffffffffffffffffffffff021916908373ffffffffffffffffffffffffffffffffffffffff1602179055509050507f0fb8980cb41d8d19e4dde3e1e0896f2193ef29751e45cdd5fd04aa1f093bc5d88989898989898989896040516115db999897969594939291906128c7565b60405180910390a1505050505050505050565b6115f6611f1b565b6000836040516116069190612748565b90815260200160405180910390206000838152602001908152602001600020604051806101600160405290816000820180546116419061278e565b80601f016020809104026020016040519081016040528092919081815260200182805461166d9061278e565b80156116ba5780601f1061168f576101008083540402835291602001916116ba565b820191906000526020600020905b81548152906001019060200180831161169d57829003601f168201915b50505050508152602001600182015481526020016002820180546116dd9061278e565b80601f01602080910402602001604051908101604052809291908181526020018280546117099061278e565b80156117565780601f1061172b57610100808354040283529160200191611756565b820191906000526020600020905b81548152906001019060200180831161173957829003601f168201915b5050505050815260200160038201805461176f9061278e565b80601f016020809104026020016040519081016040528092919081815260200182805461179b9061278e565b80156117e85780601f106117bd576101008083540402835291602001916117e8565b820191906000526020600020905b8154815290600101906020018083116117cb57829003601f168201915b505050505081526020016004820154815260200160058201805461180b9061278e565b80601f01602080910402602001604051908101604052809291908181526020018280546118379061278e565b80156118845780601f1061185957610100808354040283529160200191611884565b820191906000526020600020905b81548152906001019060200180831161186757829003601f168201915b50505050508152602001600682015481526020016007820160009054906101000a900460ff161515151581526020016007820160019054906101000a900460ff161515151581526020016007820160029054906101000a900473ffffffffffffffffffffffffffffffffffffffff1673ffffffffffffffffffffffffffffffffffffffff1673ffffffffffffffffffffffffffffffffffffffff1681526020016008820160009054906101000a900473ffffffffffffffffffffffffffffffffffffffff1673ffffffffffffffffffffffffffffffffffffffff1673ffffffffffffffffffffffffffffffffffffffff1681525050905092915050565b8181600080836040516119949190612748565b90815260200160405180910390206000838152602001908152602001600020604051806101600160405290816000820180546119cf9061278e565b80601f01602080910402602001604051908101604052809291908181526020018280546119fb9061278e565b8015611a485780601f10611a1d57610100808354040283529160200191611a48565b820191906000526020600020905b815481529060010190602001808311611a2b57829003601f168201915b5050505050815260200160018201548152602001600282018054611a6b9061278e565b80601f0160208091040260200160405190810160405280929190818152602001828054611a979061278e565b8015611ae45780601f10611ab957610100808354040283529160200191611ae4565b820191906000526020600020905b815481529060010190602001808311611ac757829003601f168201915b50505050508152602001600382018054611afd9061278e565b80601f0160208091040260200160405190810160405280929190818152602001828054611b299061278e565b8015611b765780601f10611b4b57610100808354040283529160200191611b76565b820191906000526020600020905b815481529060010190602001808311611b5957829003601f168201915b5050505050815260200160048201548152602001600582018054611b999061278e565b80601f0160208091040260200160405190810160405280929190818152602001828054611bc59061278e565b8015611c125780601f10611be757610100808354040283529160200191611c12565b820191906000526020600020905b815481529060010190602001808311611bf557829003601f168201915b50505050508152602001600682015481526020016007820160009054906101000a900460ff161515151581526020016007820160019054906101000a900460ff161515151581526020016007820160029054906101000a900473ffffffffffffffffffffffffffffffffffffffff1673ffffffffffffffffffffffffffffffffffffffff1673ffffffffffffffffffffffffffffffffffffffff1681526020016008820160009054906101000a900473ffffffffffffffffffffffffffffffffffffffff1673ffffffffffffffffffffffffffffffffffffffff1673ffffffffffffffffffffffffffffffffffffffff1681525050905080610120015173ffffffffffffffffffffffffffffffffffffffff163373ffffffffffffffffffffffffffffffffffffffff161480611d78575080610140015173ffffffffffffffffffffffffffffffffffffffff163373ffffffffffffffffffffffffffffffffffffffff16145b611db7576040517f08c379a0000000000000000000000000000000000000000000000000000000008152600401611dae9061280b565b60405180910390fd5b60008086604051611dc89190612748565b9081526020016040518091039020600086815260200190815260200160002090508060070160029054906101000a900473ffffffffffffffffffffffffffffffffffffffff1673ffffffffffffffffffffffffffffffffffffffff163373ffffffffffffffffffffffffffffffffffffffff1603611e625760018160070160006101000a81548160ff021916908315150217905550611ed8565b8060080160009054906101000a900473ffffffffffffffffffffffffffffffffffffffff1673ffffffffffffffffffffffffffffffffffffffff163373ffffffffffffffffffffffffffffffffffffffff1603611ed75760018160070160016101000a81548160ff0219169083151502179055505b5b7f9465e045c75591d39dfb7963fbe54404b94b51001ecc26cd60a6dee5283e6760338787604051611f0b93929190612970565b60405180910390a1505050505050565b60405180610160016040528060608152602001600081526020016060815260200160608152602001600081526020016060815260200160008152602001600015158152602001600015158152602001600073ffffffffffffffffffffffffffffffffffffffff168152602001600073ffffffffffffffffffffffffffffffffffffffff1681525090565b828054611fb19061278e565b90600052602060002090601f016020900481019282611fd3576000855561201a565b82601f10611fec57805160ff191683800117855561201a565b8280016001018555821561201a579182015b82811115612019578251825591602001919060010190611ffe565b5b509050612027919061202b565b5090565b5b8082111561204457600081600090555060010161202c565b5090565b6000604051905090565b600080fd5b600080fd5b600080fd5b600080fd5b6000601f19601f8301169050919050565b7f4e487b7100000000000000000000000000000000000000000000000000000000600052604160045260246000fd5b6120af82612066565b810181811067ffffffffffffffff821117156120ce576120cd612077565b5b80604052505050565b60006120e1612048565b90506120ed82826120a6565b919050565b600067ffffffffffffffff82111561210d5761210c612077565b5b61211682612066565b9050602081019050919050565b82818337600083830152505050565b6000612145612140846120f2565b6120d7565b90508281526020810184848401111561216157612160612061565b5b61216c848285612123565b509392505050565b600082601f8301126121895761218861205c565b5b8135612199848260208601612132565b91505092915050565b6000819050919050565b6121b5816121a2565b81146121c057600080fd5b50565b6000813590506121d2816121ac565b92915050565b600080604083850312156121ef576121ee612052565b5b600083013567ffffffffffffffff81111561220d5761220c612057565b5b61221985828601612174565b925050602061222a858286016121c3565b9150509250929050565b600081519050919050565b600082825260208201905092915050565b60005b8381101561226e578082015181840152602081019050612253565b8381111561227d576000848401525b50505050565b600061228e82612234565b612298818561223f565b93506122a8818560208601612250565b6122b181612066565b840191505092915050565b6122c5816121a2565b82525050565b60008115159050919050565b6122e0816122cb565b82525050565b600073ffffffffffffffffffffffffffffffffffffffff82169050919050565b6000612311826122e6565b9050919050565b61232181612306565b82525050565b60006101608301600083015184820360008601526123458282612283565b915050602083015161235a60208601826122bc565b50604083015184820360408601526123728282612283565b9150506060830151848203606086015261238c8282612283565b91505060808301516123a160808601826122bc565b5060a083015184820360a08601526123b98282612283565b91505060c08301516123ce60c08601826122bc565b5060e08301516123e160e08601826122d7565b506101008301516123f66101008601826122d7565b5061012083015161240b610120860182612318565b50610140830151612420610140860182612318565b508091505092915050565b600060208201905081810360008301526124458184612327565b905092915050565b612456816122cb565b82525050565b6000602082019050612471600083018461244d565b92915050565b61248081612306565b811461248b57600080fd5b50565b60008135905061249d81612477565b92915050565b60008060008060008060008060006101208a8c0312156124c6576124c5612052565b5b60008a013567ffffffffffffffff8111156124e4576124e3612057565b5b6124f08c828d01612174565b99505060206125018c828d016121c3565b98505060408a013567ffffffffffffffff81111561252257612521612057565b5b61252e8c828d01612174565b97505060608a013567ffffffffffffffff81111561254f5761254e612057565b5b61255b8c828d01612174565b965050608061256c8c828d016121c3565b95505060a08a013567ffffffffffffffff81111561258d5761258c612057565b5b6125998c828d01612174565b94505060c06125aa8c828d016121c3565b93505060e06125bb8c828d0161248e565b9250506101006125cd8c828d0161248e565b9150509295985092959850929598565b600082825260208201905092915050565b60006125f982612234565b61260381856125dd565b9350612613818560208601612250565b61261c81612066565b840191505092915050565b612630816121a2565b82525050565b61263f81612306565b82525050565b6000610160820190508181036000830152612660818e6125ee565b905061266f602083018d612627565b8181036040830152612681818c6125ee565b90508181036060830152612695818b6125ee565b90506126a4608083018a612627565b81810360a08301526126b681896125ee565b90506126c560c0830188612627565b6126d260e083018761244d565b6126e061010083018661244d565b6126ee610120830185612636565b6126fc610140830184612636565b9c9b505050505050505050505050565b600081905092915050565b600061272282612234565b61272c818561270c565b935061273c818560208601612250565b80840191505092915050565b60006127548284612717565b915081905092915050565b7f4e487b7100000000000000000000000000000000000000000000000000000000600052602260045260246000fd5b600060028204905060018216806127a657607f821691505b6020821081036127b9576127b861275f565b5b50919050565b7f4e6f742061207061727469636970616e74000000000000000000000000000000600082015250565b60006127f56011836125dd565b9150612800826127bf565b602082019050919050565b60006020820190508181036000830152612824816127e8565b9050919050565b6000604082019050818103600083015261284581856125ee565b90506128546020830184612627565b9392505050565b7f47616d6520616c72656164792065786973747300000000000000000000000000600082015250565b60006128916013836125dd565b915061289c8261285b565b602082019050919050565b600060208201905081810360008301526128c081612884565b9050919050565b60006101208201905081810360008301526128e2818c6125ee565b90506128f1602083018b612627565b8181036040830152612903818a6125ee565b9050818103606083015261291781896125ee565b90506129266080830188612627565b81810360a083015261293881876125ee565b905061294760c0830186612627565b61295460e0830185612636565b612962610100830184612636565b9a9950505050505050505050565b60006060820190506129856000830186612636565b818103602083015261299781856125ee565b90506129a66040830184612627565b94935050505056fea264697066735822122074ebea1e917e14a8a5981421ca106ab2b23cc2791d6a6b7dba973d618e96fc4d64736f6c634300080d0033",
  "immutableReferences": {},
  "source": "// SPDX-License-Identifier: MIT\npragma solidity >=0.6.0 <0.9.0;\n\ncontract MultisigTournament {\n\n    // Struct definition\n    struct Tournament {\n        string tournament_id;\n        uint256 game_id;\n        string game_type;\n        string loser_name;\n        uint256 loser_score;\n        string winner_name;\n        uint256 winner_score;\n        bool winnerApproved;\n        bool loserApproved;\n        address winner;\n        address loser;\n    }\n\n    // Mapping to store games by tournament ID and game ID\n    mapping(string => mapping(uint256 => Tournament)) public tournaments;\n\n    event Approved(address user, string tournament_id, uint256 game_id);\n    event GameWasFullyApproved(string tournament_id, uint256 game_id);\n    event GameAdded(\n        string tournament_id,\n        uint256 game_id,\n        string game_type,\n        string loser_name,\n        uint256 loser_score,\n        string winner_name,\n        uint256 winner_score,\n\t\taddress winner,\n\t\taddress loser\n    );\n\n    modifier onlyParticipants(string memory _tournament_id, uint256 _game_id) {\n        Tournament memory game = tournaments[_tournament_id][_game_id];\n        require(\n            msg.sender == game.winner || msg.sender == game.loser,\n            \"Not a participant\"\n        );\n        _;\n    }\n\n    // Function to approve a game\n    function approve(string memory _tournament_id, uint256 _game_id) public onlyParticipants(_tournament_id, _game_id) {\n        Tournament storage game = tournaments[_tournament_id][_game_id];\n        if (msg.sender == game.winner) {\n            game.winnerApproved = true;\n        } else if (msg.sender == game.loser) {\n            game.loserApproved = true;\n        }\n        emit Approved(msg.sender, _tournament_id, _game_id);\n    }\n\n\tfunction execute(\n    string memory _tournament_id,\n    uint256 _game_id,\n    string memory _game_type,\n    string memory _loser_name,\n    uint256 _loser_score,\n    string memory _winner_name,\n    uint256 _winner_score,\n    address _winner,\n    address _loser\n) public onlyParticipants(_tournament_id, _game_id) returns (bool) {\n    Tournament storage game = tournaments[_tournament_id][_game_id];\n    \n    // Check if both participants have approved\n    if (game.winnerApproved && game.loserApproved) {\n        // Add the game details\n        tournaments[_tournament_id][_game_id] = Tournament(\n            _tournament_id,\n            _game_id,\n            _game_type,\n            _loser_name,\n            _loser_score,\n            _winner_name,\n            _winner_score,\n            game.winnerApproved,\n            game.loserApproved,\n            _winner,\n            _loser\n        );\n\n        // Emit the executed event\n        emit GameWasFullyApproved(_tournament_id, _game_id);\n        return true; // Return true if executed successfully\n    }\n    \n    return false; // Return false if approvals are not met\n}\n\n\n    // // Function to execute after both participants approve\n    // function execute(\n    //     string memory _tournament_id,\n    //     uint256 _game_id,\n    //     string memory _game_type,\n    //     string memory _loser_name,\n    //     uint256 _loser_score,\n    //     string memory _winner_name,\n    //     uint256 _winner_score,\n    //     address _winner,\n    //     address _loser\n    // ) public onlyParticipants(_tournament_id, _game_id) {\n    //     Tournament storage game = tournaments[_tournament_id][_game_id];\n    //     require(game.winnerApproved && game.loserApproved, \"Both users must approve\");\n\n    //     Call the addGame function\n    //     addGame(\n    //         _tournament_id,\n    //         _game_id,\n    //         _game_type,\n    //         _loser_name,\n    //         _loser_score,\n    //         _winner_name,\n    //         _winner_score,\n    //         _winner,\n    //         _loser\n    //     );\n    //     emit Executed(_tournament_id, _game_id);\n    // }\n\n\t// function isApprovedGame(string memory _tournament_id, uint256 _game_id)\n\t// {\n\n\t// }\n\n\t// New function to check if the game is approved\n    function getApproval(string memory _tournament_id, uint256 _game_id) public view returns (bool) {\n        Tournament memory game = tournaments[_tournament_id][_game_id];\n        return game.winnerApproved && game.loserApproved;\n    }\n\n    // Function to add a game\n    function addGame(\n        string memory _tournament_id,\n        uint256 _game_id,\n        string memory _game_type,\n        string memory _loser_name,\n        uint256 _loser_score,\n        string memory _winner_name,\n        uint256 _winner_score,\n        address _winner,\n        address _loser\n    ) public {\n        // Ensure the game doesn't already exist\n        require(\n            bytes(tournaments[_tournament_id][_game_id].tournament_id).length == 0,\n            \"Game already exists\"\n        );\n\n        // Add the game to the mapping\n        tournaments[_tournament_id][_game_id] = Tournament(\n            _tournament_id,\n            _game_id,\n            _game_type,\n            _loser_name,\n            _loser_score,\n            _winner_name,\n            _winner_score,\n            false,\n            false,\n            _winner,\n            _loser\n        );\n\n        // Emit the GameAdded event\n        emit GameAdded(\n            _tournament_id,\n            _game_id,\n            _game_type,\n            _loser_name,\n            _loser_score,\n            _winner_name,\n            _winner_score,\n\t\t\t_winner,\n\t\t\t_loser\n        );\n    }\n\n    // Function to retrieve game details\n    function getGame(string memory _tournament_id, uint256 _game_id)\n        public\n        view\n        returns (Tournament memory)\n    {\n        return tournaments[_tournament_id][_game_id];\n    }\n\n    // Function to retrieve all data of a tournament game\n    function getTournamentInfo(string memory _tournament_id, uint256 _game_id)\n        public\n        view\n        returns (Tournament memory)\n    {\n        return tournaments[_tournament_id][_game_id];\n    }\n}\n",
  "sourcePath": "/Users/tanya/play_py_26/contracts/MultisigTournament.sol",
  "compiler": {
    "name": "solc",
    "version": "0.8.13+commit.abaa5c0e.Emscripten.clang"
  },
  "schemaVersion": "3.4.16",
  "updatedAt": "2025-01-26T15:49:29.074Z",
  "networkType": "ethereum",
  "devdoc": {
    "kind": "dev",
    "methods": {},
    "version": 1
  },
  "userdoc": {
    "kind": "user",
    "methods": {},
    "version": 1
  }
}