{
  "contractName": "TournamentScore",
  "abi": [
    {
      "inputs": [
        {
          "internalType": "address",
          "name": "_winner",
          "type": "address"
        },
        {
          "internalType": "address",
          "name": "_loser",
          "type": "address"
        }
      ],
      "stateMutability": "nonpayable",
      "type": "constructor"
    },
    {
      "anonymous": false,
      "inputs": [
        {
          "indexed": false,
          "internalType": "address",
          "name": "user",
          "type": "address"
        }
      ],
      "name": "Approved",
      "type": "event"
    },
    {
      "anonymous": false,
      "inputs": [],
      "name": "Executed",
      "type": "event"
    },
    {
      "anonymous": false,
      "inputs": [
        {
          "indexed": false,
          "internalType": "string",
          "name": "tournament_id",
          "type": "string"
        },
        {
          "indexed": false,
          "internalType": "uint256",
          "name": "game_id",
          "type": "uint256"
        },
        {
          "indexed": false,
          "internalType": "string",
          "name": "game_type",
          "type": "string"
        },
        {
          "indexed": false,
          "internalType": "string",
          "name": "loser_name",
          "type": "string"
        },
        {
          "indexed": false,
          "internalType": "uint256",
          "name": "loser_score",
          "type": "uint256"
        },
        {
          "indexed": false,
          "internalType": "string",
          "name": "winner_name",
          "type": "string"
        },
        {
          "indexed": false,
          "internalType": "uint256",
          "name": "winner_score",
          "type": "uint256"
        }
      ],
      "name": "GameAdded",
      "type": "event"
    },
    {
      "inputs": [],
      "name": "loser",
      "outputs": [
        {
          "internalType": "address",
          "name": "",
          "type": "address"
        }
      ],
      "stateMutability": "view",
      "type": "function",
      "constant": true
    },
    {
      "inputs": [],
      "name": "loserApproved",
      "outputs": [
        {
          "internalType": "bool",
          "name": "",
          "type": "bool"
        }
      ],
      "stateMutability": "view",
      "type": "function",
      "constant": true
    },
    {
      "inputs": [
        {
          "internalType": "string",
          "name": "",
          "type": "string"
        },
        {
          "internalType": "uint256",
          "name": "",
          "type": "uint256"
        }
      ],
      "name": "tournaments",
      "outputs": [
        {
          "internalType": "string",
          "name": "tournament_id",
          "type": "string"
        },
        {
          "internalType": "uint256",
          "name": "game_id",
          "type": "uint256"
        },
        {
          "internalType": "string",
          "name": "game_type",
          "type": "string"
        },
        {
          "internalType": "string",
          "name": "loser_name",
          "type": "string"
        },
        {
          "internalType": "uint256",
          "name": "loser_score",
          "type": "uint256"
        },
        {
          "internalType": "string",
          "name": "winner_name",
          "type": "string"
        },
        {
          "internalType": "uint256",
          "name": "winner_score",
          "type": "uint256"
        }
      ],
      "stateMutability": "view",
      "type": "function",
      "constant": true
    },
    {
      "inputs": [],
      "name": "winner",
      "outputs": [
        {
          "internalType": "address",
          "name": "",
          "type": "address"
        }
      ],
      "stateMutability": "view",
      "type": "function",
      "constant": true
    },
    {
      "inputs": [],
      "name": "winnerApproved",
      "outputs": [
        {
          "internalType": "bool",
          "name": "",
          "type": "bool"
        }
      ],
      "stateMutability": "view",
      "type": "function",
      "constant": true
    },
    {
      "inputs": [],
      "name": "approve",
      "outputs": [],
      "stateMutability": "nonpayable",
      "type": "function"
    },
    {
      "inputs": [
        {
          "internalType": "string",
          "name": "_tournament_id",
          "type": "string"
        },
        {
          "internalType": "uint256",
          "name": "_game_id",
          "type": "uint256"
        },
        {
          "internalType": "string",
          "name": "_game_type",
          "type": "string"
        },
        {
          "internalType": "string",
          "name": "_loser_name",
          "type": "string"
        },
        {
          "internalType": "uint256",
          "name": "_loser_score",
          "type": "uint256"
        },
        {
          "internalType": "string",
          "name": "_winner_name",
          "type": "string"
        },
        {
          "internalType": "uint256",
          "name": "_winner_score",
          "type": "uint256"
        }
      ],
      "name": "execute",
      "outputs": [],
      "stateMutability": "nonpayable",
      "type": "function"
    },
    {
      "inputs": [
        {
          "internalType": "string",
          "name": "_tournament_id",
          "type": "string"
        },
        {
          "internalType": "uint256",
          "name": "_game_id",
          "type": "uint256"
        }
      ],
      "name": "getGame",
      "outputs": [
        {
          "components": [
            {
              "internalType": "string",
              "name": "tournament_id",
              "type": "string"
            },
            {
              "internalType": "uint256",
              "name": "game_id",
              "type": "uint256"
            },
            {
              "internalType": "string",
              "name": "game_type",
              "type": "string"
            },
            {
              "internalType": "string",
              "name": "loser_name",
              "type": "string"
            },
            {
              "internalType": "uint256",
              "name": "loser_score",
              "type": "uint256"
            },
            {
              "internalType": "string",
              "name": "winner_name",
              "type": "string"
            },
            {
              "internalType": "uint256",
              "name": "winner_score",
              "type": "uint256"
            }
          ],
          "internalType": "struct TournamentScore.Tournament",
          "name": "",
          "type": "tuple"
        }
      ],
      "stateMutability": "view",
      "type": "function",
      "constant": true
    },
    {
      "inputs": [
        {
          "internalType": "string",
          "name": "_tournament_id",
          "type": "string"
        },
        {
          "internalType": "uint256",
          "name": "_game_id",
          "type": "uint256"
        }
      ],
      "name": "getTournamentInfo",
      "outputs": [
        {
          "components": [
            {
              "internalType": "string",
              "name": "tournament_id",
              "type": "string"
            },
            {
              "internalType": "uint256",
              "name": "game_id",
              "type": "uint256"
            },
            {
              "internalType": "string",
              "name": "game_type",
              "type": "string"
            },
            {
              "internalType": "string",
              "name": "loser_name",
              "type": "string"
            },
            {
              "internalType": "uint256",
              "name": "loser_score",
              "type": "uint256"
            },
            {
              "internalType": "string",
              "name": "winner_name",
              "type": "string"
            },
            {
              "internalType": "uint256",
              "name": "winner_score",
              "type": "uint256"
            }
          ],
          "internalType": "struct TournamentScore.Tournament",
          "name": "",
          "type": "tuple"
        }
      ],
      "stateMutability": "nonpayable",
      "type": "function"
    }
  ],
  "bytecode": "0x60806040523480156200001157600080fd5b50604051620019f0380380620019f083398181016040528101906200003791906200012a565b816000806101000a81548173ffffffffffffffffffffffffffffffffffffffff021916908373ffffffffffffffffffffffffffffffffffffffff16021790555080600160006101000a81548173ffffffffffffffffffffffffffffffffffffffff021916908373ffffffffffffffffffffffffffffffffffffffff160217905550505062000171565b600080fd5b600073ffffffffffffffffffffffffffffffffffffffff82169050919050565b6000620000f282620000c5565b9050919050565b6200010481620000e5565b81146200011057600080fd5b50565b6000815190506200012481620000f9565b92915050565b60008060408385031215620001445762000143620000c0565b5b6000620001548582860162000113565b9250506020620001678582860162000113565b9150509250929050565b61186f80620001816000396000f3fe608060405234801561001057600080fd5b50600436106100935760003560e01c80638fc3afcf116100665780638fc3afcf14610126578063a0aeacc314610156578063dfbf53ae14610174578063e82898b314610192578063fc4926ae146101b057610093565b80630be2ea761461009857806312424e3f146100c8578063407e134f146100d25780637014fe7714610108575b600080fd5b6100b260048036038101906100ad91906111f4565b6101cc565b6040516100bf9190611398565b60405180910390f35b6100d0610482565b005b6100ec60048036038101906100e791906111f4565b610684565b6040516100ff9796959493929190611413565b60405180910390f35b610110610909565b60405161011d91906114b9565b60405180910390f35b610140600480360381019061013b91906111f4565b61091c565b60405161014d9190611398565b60405180910390f35b61015e610bd2565b60405161016b91906114b9565b60405180910390f35b61017c610be5565b6040516101899190611515565b60405180910390f35b61019a610c09565b6040516101a79190611515565b60405180910390f35b6101ca60048036038101906101c59190611530565b610c2f565b005b6101d4610f84565b60006002846040516101e6919061167e565b908152602001604051809103902060008481526020019081526020016000206040518060e0016040529081600082018054610220906116c4565b80601f016020809104026020016040519081016040528092919081815260200182805461024c906116c4565b80156102995780601f1061026e57610100808354040283529160200191610299565b820191906000526020600020905b81548152906001019060200180831161027c57829003601f168201915b50505050508152602001600182015481526020016002820180546102bc906116c4565b80601f01602080910402602001604051908101604052809291908181526020018280546102e8906116c4565b80156103355780601f1061030a57610100808354040283529160200191610335565b820191906000526020600020905b81548152906001019060200180831161031857829003601f168201915b5050505050815260200160038201805461034e906116c4565b80601f016020809104026020016040519081016040528092919081815260200182805461037a906116c4565b80156103c75780601f1061039c576101008083540402835291602001916103c7565b820191906000526020600020905b8154815290600101906020018083116103aa57829003601f168201915b50505050508152602001600482015481526020016005820180546103ea906116c4565b80601f0160208091040260200160405190810160405280929190818152602001828054610416906116c4565b80156104635780601f1061043857610100808354040283529160200191610463565b820191906000526020600020905b81548152906001019060200180831161044657829003601f168201915b5050505050815260200160068201548152505090508091505092915050565b60008054906101000a900473ffffffffffffffffffffffffffffffffffffffff1673ffffffffffffffffffffffffffffffffffffffff163373ffffffffffffffffffffffffffffffffffffffff1614806105295750600160009054906101000a900473ffffffffffffffffffffffffffffffffffffffff1673ffffffffffffffffffffffffffffffffffffffff163373ffffffffffffffffffffffffffffffffffffffff16145b610568576040517f08c379a000000000000000000000000000000000000000000000000000000000815260040161055f90611741565b60405180910390fd5b60008054906101000a900473ffffffffffffffffffffffffffffffffffffffff1673ffffffffffffffffffffffffffffffffffffffff163373ffffffffffffffffffffffffffffffffffffffff16036105da5760018060146101000a81548160ff02191690831515021790555061064b565b600160009054906101000a900473ffffffffffffffffffffffffffffffffffffffff1673ffffffffffffffffffffffffffffffffffffffff163373ffffffffffffffffffffffffffffffffffffffff160361064a5760018060156101000a81548160ff0219169083151502179055505b5b7f5d91bd0cecc45fef102af61de92c5462fadc884a5ce9d21c15e8a85198f2349e3360405161067a9190611515565b60405180910390a1565b600282805160208101820180518482526020830160208501208183528095505050505050602052806000526040600020600091509150508060000180546106ca906116c4565b80601f01602080910402602001604051908101604052809291908181526020018280546106f6906116c4565b80156107435780601f1061071857610100808354040283529160200191610743565b820191906000526020600020905b81548152906001019060200180831161072657829003601f168201915b50505050509080600101549080600201805461075e906116c4565b80601f016020809104026020016040519081016040528092919081815260200182805461078a906116c4565b80156107d75780601f106107ac576101008083540402835291602001916107d7565b820191906000526020600020905b8154815290600101906020018083116107ba57829003601f168201915b5050505050908060030180546107ec906116c4565b80601f0160208091040260200160405190810160405280929190818152602001828054610818906116c4565b80156108655780601f1061083a57610100808354040283529160200191610865565b820191906000526020600020905b81548152906001019060200180831161084857829003601f168201915b505050505090806004015490806005018054610880906116c4565b80601f01602080910402602001604051908101604052809291908181526020018280546108ac906116c4565b80156108f95780601f106108ce576101008083540402835291602001916108f9565b820191906000526020600020905b8154815290600101906020018083116108dc57829003601f168201915b5050505050908060060154905087565b600160149054906101000a900460ff1681565b610924610f84565b6000600284604051610936919061167e565b908152602001604051809103902060008481526020019081526020016000206040518060e0016040529081600082018054610970906116c4565b80601f016020809104026020016040519081016040528092919081815260200182805461099c906116c4565b80156109e95780601f106109be576101008083540402835291602001916109e9565b820191906000526020600020905b8154815290600101906020018083116109cc57829003601f168201915b5050505050815260200160018201548152602001600282018054610a0c906116c4565b80601f0160208091040260200160405190810160405280929190818152602001828054610a38906116c4565b8015610a855780601f10610a5a57610100808354040283529160200191610a85565b820191906000526020600020905b815481529060010190602001808311610a6857829003601f168201915b50505050508152602001600382018054610a9e906116c4565b80601f0160208091040260200160405190810160405280929190818152602001828054610aca906116c4565b8015610b175780601f10610aec57610100808354040283529160200191610b17565b820191906000526020600020905b815481529060010190602001808311610afa57829003601f168201915b5050505050815260200160048201548152602001600582018054610b3a906116c4565b80601f0160208091040260200160405190810160405280929190818152602001828054610b66906116c4565b8015610bb35780601f10610b8857610100808354040283529160200191610bb3565b820191906000526020600020905b815481529060010190602001808311610b9657829003601f168201915b5050505050815260200160068201548152505090508091505092915050565b600160159054906101000a900460ff1681565b60008054906101000a900473ffffffffffffffffffffffffffffffffffffffff1681565b600160009054906101000a900473ffffffffffffffffffffffffffffffffffffffff1681565b60008054906101000a900473ffffffffffffffffffffffffffffffffffffffff1673ffffffffffffffffffffffffffffffffffffffff163373ffffffffffffffffffffffffffffffffffffffff161480610cd65750600160009054906101000a900473ffffffffffffffffffffffffffffffffffffffff1673ffffffffffffffffffffffffffffffffffffffff163373ffffffffffffffffffffffffffffffffffffffff16145b610d15576040517f08c379a0000000000000000000000000000000000000000000000000000000008152600401610d0c90611741565b60405180910390fd5b600160149054906101000a900460ff168015610d3d5750600160159054906101000a900460ff165b610d7c576040517f08c379a0000000000000000000000000000000000000000000000000000000008152600401610d73906117ad565b60405180910390fd5b610d8b87878787878787610dc0565b7f68f46c45a243a0e9065a97649faf9a5afe1692f2679e650c2f853b9cd734cc0e60405160405180910390a150505050505050565b6000600288604051610dd2919061167e565b908152602001604051809103902060008881526020019081526020016000206000018054610dff906116c4565b905014610e41576040517f08c379a0000000000000000000000000000000000000000000000000000000008152600401610e3890611819565b60405180910390fd5b6040518060e0016040528088815260200187815260200186815260200185815260200184815260200183815260200182815250600288604051610e84919061167e565b908152602001604051809103902060008881526020019081526020016000206000820151816000019080519060200190610ebf929190610fc1565b50602082015181600101556040820151816002019080519060200190610ee6929190610fc1565b506060820151816003019080519060200190610f03929190610fc1565b506080820151816004015560a0820151816005019080519060200190610f2a929190610fc1565b5060c082015181600601559050507f09f3615c927c980ac3f96f076b232ab8138c9c03f6162c2d8bd2aaa0bcb0d9a987878787878787604051610f739796959493929190611413565b60405180910390a150505050505050565b6040518060e00160405280606081526020016000815260200160608152602001606081526020016000815260200160608152602001600081525090565b828054610fcd906116c4565b90600052602060002090601f016020900481019282610fef5760008555611036565b82601f1061100857805160ff1916838001178555611036565b82800160010185558215611036579182015b8281111561103557825182559160200191906001019061101a565b5b5090506110439190611047565b5090565b5b80821115611060576000816000905550600101611048565b5090565b6000604051905090565b600080fd5b600080fd5b600080fd5b600080fd5b6000601f19601f8301169050919050565b7f4e487b7100000000000000000000000000000000000000000000000000000000600052604160045260246000fd5b6110cb82611082565b810181811067ffffffffffffffff821117156110ea576110e9611093565b5b80604052505050565b60006110fd611064565b905061110982826110c2565b919050565b600067ffffffffffffffff82111561112957611128611093565b5b61113282611082565b9050602081019050919050565b82818337600083830152505050565b600061116161115c8461110e565b6110f3565b90508281526020810184848401111561117d5761117c61107d565b5b61118884828561113f565b509392505050565b600082601f8301126111a5576111a4611078565b5b81356111b584826020860161114e565b91505092915050565b6000819050919050565b6111d1816111be565b81146111dc57600080fd5b50565b6000813590506111ee816111c8565b92915050565b6000806040838503121561120b5761120a61106e565b5b600083013567ffffffffffffffff81111561122957611228611073565b5b61123585828601611190565b9250506020611246858286016111df565b9150509250929050565b600081519050919050565b600082825260208201905092915050565b60005b8381101561128a57808201518184015260208101905061126f565b83811115611299576000848401525b50505050565b60006112aa82611250565b6112b4818561125b565b93506112c481856020860161126c565b6112cd81611082565b840191505092915050565b6112e1816111be565b82525050565b600060e0830160008301518482036000860152611304828261129f565b915050602083015161131960208601826112d8565b5060408301518482036040860152611331828261129f565b9150506060830151848203606086015261134b828261129f565b915050608083015161136060808601826112d8565b5060a083015184820360a0860152611378828261129f565b91505060c083015161138d60c08601826112d8565b508091505092915050565b600060208201905081810360008301526113b281846112e7565b905092915050565b600082825260208201905092915050565b60006113d682611250565b6113e081856113ba565b93506113f081856020860161126c565b6113f981611082565b840191505092915050565b61140d816111be565b82525050565b600060e082019050818103600083015261142d818a6113cb565b905061143c6020830189611404565b818103604083015261144e81886113cb565b9050818103606083015261146281876113cb565b90506114716080830186611404565b81810360a083015261148381856113cb565b905061149260c0830184611404565b98975050505050505050565b60008115159050919050565b6114b38161149e565b82525050565b60006020820190506114ce60008301846114aa565b92915050565b600073ffffffffffffffffffffffffffffffffffffffff82169050919050565b60006114ff826114d4565b9050919050565b61150f816114f4565b82525050565b600060208201905061152a6000830184611506565b92915050565b600080600080600080600060e0888a03121561154f5761154e61106e565b5b600088013567ffffffffffffffff81111561156d5761156c611073565b5b6115798a828b01611190565b975050602061158a8a828b016111df565b965050604088013567ffffffffffffffff8111156115ab576115aa611073565b5b6115b78a828b01611190565b955050606088013567ffffffffffffffff8111156115d8576115d7611073565b5b6115e48a828b01611190565b94505060806115f58a828b016111df565b93505060a088013567ffffffffffffffff81111561161657611615611073565b5b6116228a828b01611190565b92505060c06116338a828b016111df565b91505092959891949750929550565b600081905092915050565b600061165882611250565b6116628185611642565b935061167281856020860161126c565b80840191505092915050565b600061168a828461164d565b915081905092915050565b7f4e487b7100000000000000000000000000000000000000000000000000000000600052602260045260246000fd5b600060028204905060018216806116dc57607f821691505b6020821081036116ef576116ee611695565b5b50919050565b7f4e6f742061207061727469636970616e74000000000000000000000000000000600082015250565b600061172b6011836113ba565b9150611736826116f5565b602082019050919050565b6000602082019050818103600083015261175a8161171e565b9050919050565b7f426f7468207573657273206d75737420617070726f7665000000000000000000600082015250565b60006117976017836113ba565b91506117a282611761565b602082019050919050565b600060208201905081810360008301526117c68161178a565b9050919050565b7f47616d6520616c72656164792065786973747300000000000000000000000000600082015250565b60006118036013836113ba565b915061180e826117cd565b602082019050919050565b60006020820190508181036000830152611832816117f6565b905091905056fea26469706673582212204910fd58b35f352b6ab21dcaa20a9834fbe53daee2b6540e35be8436eb2271e264736f6c634300080d0033",
  "immutableReferences": {},
  "source": "// SPDX-License-Identifier: MIT\npragma solidity >=0.6.0 <0.9.0;\n\ncontract TournamentScore {\n\n\taddress public winner;\n    address public loser;\n\n    bool public winnerApproved;\n    bool public loserApproved;\n\n    // Struct definition\n    struct Tournament {\n        string tournament_id;\n        uint256 game_id;\n        string game_type;\n        string loser_name;\n        uint256 loser_score;\n        string winner_name;\n        uint256 winner_score;\n    }\n\n    // Mapping to store games by tournament ID and game ID\n    mapping(string => mapping(uint256 => Tournament)) public tournaments;\n\n\tevent Approved(address user);\n    event Executed();\n    // Event to emit when a game is added\n    event GameAdded(\n        string tournament_id,\n        uint256 game_id,\n        string game_type,\n        string loser_name,\n        uint256 loser_score,\n        string winner_name,\n        uint256 winner_score\n    );\n\n\tconstructor(address _winner, address _loser) {\n        winner = _winner;\n        loser = _loser;\n    }\n\n\tmodifier onlyParticipants() {\n        require(msg.sender == winner || msg.sender == loser, \"Not a participant\");\n        _;\n    }\n\n    function approve() public onlyParticipants {\n        if (msg.sender == winner) {\n            winnerApproved = true;\n        } else if (msg.sender == loser) {\n            loserApproved = true;\n        }\n        emit Approved(msg.sender);\n    }\n\n    function execute(\n        string memory _tournament_id,\n        uint256 _game_id,\n        string memory _game_type,\n        string memory _loser_name,\n        uint256 _loser_score,\n        string memory _winner_name,\n        uint256 _winner_score\n    ) public onlyParticipants {\n        require(winnerApproved && loserApproved, \"Both users must approve\");\n\n        // Call the addGame function\n        addGame(\n            _tournament_id,\n            _game_id,\n            _game_type,\n            _loser_name,\n            _loser_score,\n            _winner_name,\n            _winner_score\n        );\n\n        emit Executed();\n    }\n\n\n    // Function to add a game\n    function addGame(\n        string memory _tournament_id,\n        uint256 _game_id,\n        string memory _game_type,\n        string memory _loser_name,\n        uint256 _loser_score,\n        string memory _winner_name,\n        uint256 _winner_score\n    ) internal {\n        // Ensure the game doesn't already exist\n        require(\n            bytes(tournaments[_tournament_id][_game_id].tournament_id).length == 0,\n            \"Game already exists\"\n        );\n\n        // Add the game to the mapping\n        tournaments[_tournament_id][_game_id] = Tournament(\n            _tournament_id,\n            _game_id,\n            _game_type,\n            _loser_name,\n            _loser_score,\n            _winner_name,\n            _winner_score\n        );\n\n        // Emit the GameAdded event\n        emit GameAdded(\n            _tournament_id,\n            _game_id,\n            _game_type,\n            _loser_name,\n            _loser_score,\n            _winner_name,\n            _winner_score\n        );\n    }\n\n\tfunction getGame(string memory _tournament_id, uint256 _game_id)\n\t\tpublic\n\t\tview\n\t\treturns (Tournament memory)\n\t{\n\t\tTournament memory game = tournaments[_tournament_id][_game_id];\n\t\treturn game;\n\t}\n\n\tfunction getTournamentInfo(string memory _tournament_id, uint256 _game_id)\n\t\tpublic\n\t\treturns (Tournament memory)\n\t{\n\t\tTournament memory all_data = tournaments[_tournament_id][_game_id];\n\t\treturn all_data;\n\t}\n\n\n}\n\n\n\n\n",
  "sourcePath": "/Users/tanya/play_py/contracts/TournamentScore.sol",
  "compiler": {
    "name": "solc",
    "version": "0.8.13+commit.abaa5c0e.Emscripten.clang"
  },
  "schemaVersion": "3.4.16",
  "updatedAt": "2025-01-20T18:09:01.677Z",
  "networkType": "ethereum",
  "devdoc": {
    "kind": "dev",
    "methods": {},
    "version": 1
  },
  "userdoc": {
    "kind": "user",
    "methods": {},
    "version": 1
  }
}