{
  "contractName": "TournamentScore",
  "abi": [
    {
      "anonymous": false,
      "inputs": [
        {
          "indexed": false,
          "internalType": "string",
          "name": "tournament_id",
          "type": "string"
        },
        {
          "indexed": false,
          "internalType": "uint256",
          "name": "game_id",
          "type": "uint256"
        },
        {
          "indexed": false,
          "internalType": "string",
          "name": "game_type",
          "type": "string"
        },
        {
          "indexed": false,
          "internalType": "string",
          "name": "loser_name",
          "type": "string"
        },
        {
          "indexed": false,
          "internalType": "uint256",
          "name": "loser_score",
          "type": "uint256"
        },
        {
          "indexed": false,
          "internalType": "string",
          "name": "winner_name",
          "type": "string"
        },
        {
          "indexed": false,
          "internalType": "uint256",
          "name": "winner_score",
          "type": "uint256"
        }
      ],
      "name": "GameAdded",
      "type": "event"
    },
    {
      "inputs": [
        {
          "internalType": "string",
          "name": "",
          "type": "string"
        },
        {
          "internalType": "uint256",
          "name": "",
          "type": "uint256"
        }
      ],
      "name": "tournaments",
      "outputs": [
        {
          "internalType": "string",
          "name": "tournament_id",
          "type": "string"
        },
        {
          "internalType": "uint256",
          "name": "game_id",
          "type": "uint256"
        },
        {
          "internalType": "string",
          "name": "game_type",
          "type": "string"
        },
        {
          "internalType": "string",
          "name": "loser_name",
          "type": "string"
        },
        {
          "internalType": "uint256",
          "name": "loser_score",
          "type": "uint256"
        },
        {
          "internalType": "string",
          "name": "winner_name",
          "type": "string"
        },
        {
          "internalType": "uint256",
          "name": "winner_score",
          "type": "uint256"
        }
      ],
      "stateMutability": "view",
      "type": "function",
      "constant": true
    },
    {
      "inputs": [
        {
          "internalType": "string",
          "name": "_tournament_id",
          "type": "string"
        },
        {
          "internalType": "uint256",
          "name": "_game_id",
          "type": "uint256"
        },
        {
          "internalType": "string",
          "name": "_game_type",
          "type": "string"
        },
        {
          "internalType": "string",
          "name": "_loser_name",
          "type": "string"
        },
        {
          "internalType": "uint256",
          "name": "_loser_score",
          "type": "uint256"
        },
        {
          "internalType": "string",
          "name": "_winner_name",
          "type": "string"
        },
        {
          "internalType": "uint256",
          "name": "_winner_score",
          "type": "uint256"
        }
      ],
      "name": "addGame",
      "outputs": [],
      "stateMutability": "nonpayable",
      "type": "function"
    },
    {
      "inputs": [
        {
          "internalType": "string",
          "name": "_tournament_id",
          "type": "string"
        },
        {
          "internalType": "uint256",
          "name": "_game_id",
          "type": "uint256"
        }
      ],
      "name": "getGame",
      "outputs": [
        {
          "components": [
            {
              "internalType": "string",
              "name": "tournament_id",
              "type": "string"
            },
            {
              "internalType": "uint256",
              "name": "game_id",
              "type": "uint256"
            },
            {
              "internalType": "string",
              "name": "game_type",
              "type": "string"
            },
            {
              "internalType": "string",
              "name": "loser_name",
              "type": "string"
            },
            {
              "internalType": "uint256",
              "name": "loser_score",
              "type": "uint256"
            },
            {
              "internalType": "string",
              "name": "winner_name",
              "type": "string"
            },
            {
              "internalType": "uint256",
              "name": "winner_score",
              "type": "uint256"
            }
          ],
          "internalType": "struct TournamentScore.Tournament",
          "name": "",
          "type": "tuple"
        }
      ],
      "stateMutability": "view",
      "type": "function",
      "constant": true
    },
    {
      "inputs": [
        {
          "internalType": "string",
          "name": "_tournament_id",
          "type": "string"
        },
        {
          "internalType": "uint256",
          "name": "_game_id",
          "type": "uint256"
        }
      ],
      "name": "getTournamentInfo",
      "outputs": [
        {
          "components": [
            {
              "internalType": "string",
              "name": "tournament_id",
              "type": "string"
            },
            {
              "internalType": "uint256",
              "name": "game_id",
              "type": "uint256"
            },
            {
              "internalType": "string",
              "name": "game_type",
              "type": "string"
            },
            {
              "internalType": "string",
              "name": "loser_name",
              "type": "string"
            },
            {
              "internalType": "uint256",
              "name": "loser_score",
              "type": "uint256"
            },
            {
              "internalType": "string",
              "name": "winner_name",
              "type": "string"
            },
            {
              "internalType": "uint256",
              "name": "winner_score",
              "type": "uint256"
            }
          ],
          "internalType": "struct TournamentScore.Tournament",
          "name": "",
          "type": "tuple"
        }
      ],
      "stateMutability": "nonpayable",
      "type": "function"
    }
  ],
  "bytecode": "0x608060405234801561001057600080fd5b50611236806100206000396000f3fe608060405234801561001057600080fd5b506004361061004c5760003560e01c80630be2ea7614610051578063407e134f14610081578063506a7d30146100b75780638fc3afcf146100d3575b600080fd5b61006b60048036038101906100669190610d25565b610103565b6040516100789190610ec9565b60405180910390f35b61009b60048036038101906100969190610d25565b6103b8565b6040516100ae9796959493929190610f44565b60405180910390f35b6100d160048036038101906100cc9190610fcf565b61063d565b005b6100ed60048036038101906100e89190610d25565b610800565b6040516100fa9190610ec9565b60405180910390f35b61010b610ab5565b6000808460405161011c919061111d565b908152602001604051809103902060008481526020019081526020016000206040518060e001604052908160008201805461015690611163565b80601f016020809104026020016040519081016040528092919081815260200182805461018290611163565b80156101cf5780601f106101a4576101008083540402835291602001916101cf565b820191906000526020600020905b8154815290600101906020018083116101b257829003601f168201915b50505050508152602001600182015481526020016002820180546101f290611163565b80601f016020809104026020016040519081016040528092919081815260200182805461021e90611163565b801561026b5780601f106102405761010080835404028352916020019161026b565b820191906000526020600020905b81548152906001019060200180831161024e57829003601f168201915b5050505050815260200160038201805461028490611163565b80601f01602080910402602001604051908101604052809291908181526020018280546102b090611163565b80156102fd5780601f106102d2576101008083540402835291602001916102fd565b820191906000526020600020905b8154815290600101906020018083116102e057829003601f168201915b505050505081526020016004820154815260200160058201805461032090611163565b80601f016020809104026020016040519081016040528092919081815260200182805461034c90611163565b80156103995780601f1061036e57610100808354040283529160200191610399565b820191906000526020600020905b81548152906001019060200180831161037c57829003601f168201915b5050505050815260200160068201548152505090508091505092915050565b600082805160208101820180518482526020830160208501208183528095505050505050602052806000526040600020600091509150508060000180546103fe90611163565b80601f016020809104026020016040519081016040528092919081815260200182805461042a90611163565b80156104775780601f1061044c57610100808354040283529160200191610477565b820191906000526020600020905b81548152906001019060200180831161045a57829003601f168201915b50505050509080600101549080600201805461049290611163565b80601f01602080910402602001604051908101604052809291908181526020018280546104be90611163565b801561050b5780601f106104e05761010080835404028352916020019161050b565b820191906000526020600020905b8154815290600101906020018083116104ee57829003601f168201915b50505050509080600301805461052090611163565b80601f016020809104026020016040519081016040528092919081815260200182805461054c90611163565b80156105995780601f1061056e57610100808354040283529160200191610599565b820191906000526020600020905b81548152906001019060200180831161057c57829003601f168201915b5050505050908060040154908060050180546105b490611163565b80601f01602080910402602001604051908101604052809291908181526020018280546105e090611163565b801561062d5780601f106106025761010080835404028352916020019161062d565b820191906000526020600020905b81548152906001019060200180831161061057829003601f168201915b5050505050908060060154905087565b6000808860405161064e919061111d565b90815260200160405180910390206000888152602001908152602001600020600001805461067b90611163565b9050146106bd576040517f08c379a00000000000000000000000000000000000000000000000000000000081526004016106b4906111e0565b60405180910390fd5b6040518060e0016040528088815260200187815260200186815260200185815260200184815260200183815260200182815250600088604051610700919061111d565b90815260200160405180910390206000888152602001908152602001600020600082015181600001908051906020019061073b929190610af2565b50602082015181600101556040820151816002019080519060200190610762929190610af2565b50606082015181600301908051906020019061077f929190610af2565b506080820151816004015560a08201518160050190805190602001906107a6929190610af2565b5060c082015181600601559050507f09f3615c927c980ac3f96f076b232ab8138c9c03f6162c2d8bd2aaa0bcb0d9a9878787878787876040516107ef9796959493929190610f44565b60405180910390a150505050505050565b610808610ab5565b60008084604051610819919061111d565b908152602001604051809103902060008481526020019081526020016000206040518060e001604052908160008201805461085390611163565b80601f016020809104026020016040519081016040528092919081815260200182805461087f90611163565b80156108cc5780601f106108a1576101008083540402835291602001916108cc565b820191906000526020600020905b8154815290600101906020018083116108af57829003601f168201915b50505050508152602001600182015481526020016002820180546108ef90611163565b80601f016020809104026020016040519081016040528092919081815260200182805461091b90611163565b80156109685780601f1061093d57610100808354040283529160200191610968565b820191906000526020600020905b81548152906001019060200180831161094b57829003601f168201915b5050505050815260200160038201805461098190611163565b80601f01602080910402602001604051908101604052809291908181526020018280546109ad90611163565b80156109fa5780601f106109cf576101008083540402835291602001916109fa565b820191906000526020600020905b8154815290600101906020018083116109dd57829003601f168201915b5050505050815260200160048201548152602001600582018054610a1d90611163565b80601f0160208091040260200160405190810160405280929190818152602001828054610a4990611163565b8015610a965780601f10610a6b57610100808354040283529160200191610a96565b820191906000526020600020905b815481529060010190602001808311610a7957829003601f168201915b5050505050815260200160068201548152505090508091505092915050565b6040518060e00160405280606081526020016000815260200160608152602001606081526020016000815260200160608152602001600081525090565b828054610afe90611163565b90600052602060002090601f016020900481019282610b205760008555610b67565b82601f10610b3957805160ff1916838001178555610b67565b82800160010185558215610b67579182015b82811115610b66578251825591602001919060010190610b4b565b5b509050610b749190610b78565b5090565b5b80821115610b91576000816000905550600101610b79565b5090565b6000604051905090565b600080fd5b600080fd5b600080fd5b600080fd5b6000601f19601f8301169050919050565b7f4e487b7100000000000000000000000000000000000000000000000000000000600052604160045260246000fd5b610bfc82610bb3565b810181811067ffffffffffffffff82111715610c1b57610c1a610bc4565b5b80604052505050565b6000610c2e610b95565b9050610c3a8282610bf3565b919050565b600067ffffffffffffffff821115610c5a57610c59610bc4565b5b610c6382610bb3565b9050602081019050919050565b82818337600083830152505050565b6000610c92610c8d84610c3f565b610c24565b905082815260208101848484011115610cae57610cad610bae565b5b610cb9848285610c70565b509392505050565b600082601f830112610cd657610cd5610ba9565b5b8135610ce6848260208601610c7f565b91505092915050565b6000819050919050565b610d0281610cef565b8114610d0d57600080fd5b50565b600081359050610d1f81610cf9565b92915050565b60008060408385031215610d3c57610d3b610b9f565b5b600083013567ffffffffffffffff811115610d5a57610d59610ba4565b5b610d6685828601610cc1565b9250506020610d7785828601610d10565b9150509250929050565b600081519050919050565b600082825260208201905092915050565b60005b83811015610dbb578082015181840152602081019050610da0565b83811115610dca576000848401525b50505050565b6000610ddb82610d81565b610de58185610d8c565b9350610df5818560208601610d9d565b610dfe81610bb3565b840191505092915050565b610e1281610cef565b82525050565b600060e0830160008301518482036000860152610e358282610dd0565b9150506020830151610e4a6020860182610e09565b5060408301518482036040860152610e628282610dd0565b91505060608301518482036060860152610e7c8282610dd0565b9150506080830151610e916080860182610e09565b5060a083015184820360a0860152610ea98282610dd0565b91505060c0830151610ebe60c0860182610e09565b508091505092915050565b60006020820190508181036000830152610ee38184610e18565b905092915050565b600082825260208201905092915050565b6000610f0782610d81565b610f118185610eeb565b9350610f21818560208601610d9d565b610f2a81610bb3565b840191505092915050565b610f3e81610cef565b82525050565b600060e0820190508181036000830152610f5e818a610efc565b9050610f6d6020830189610f35565b8181036040830152610f7f8188610efc565b90508181036060830152610f938187610efc565b9050610fa26080830186610f35565b81810360a0830152610fb48185610efc565b9050610fc360c0830184610f35565b98975050505050505050565b600080600080600080600060e0888a031215610fee57610fed610b9f565b5b600088013567ffffffffffffffff81111561100c5761100b610ba4565b5b6110188a828b01610cc1565b97505060206110298a828b01610d10565b965050604088013567ffffffffffffffff81111561104a57611049610ba4565b5b6110568a828b01610cc1565b955050606088013567ffffffffffffffff81111561107757611076610ba4565b5b6110838a828b01610cc1565b94505060806110948a828b01610d10565b93505060a088013567ffffffffffffffff8111156110b5576110b4610ba4565b5b6110c18a828b01610cc1565b92505060c06110d28a828b01610d10565b91505092959891949750929550565b600081905092915050565b60006110f782610d81565b61110181856110e1565b9350611111818560208601610d9d565b80840191505092915050565b600061112982846110ec565b915081905092915050565b7f4e487b7100000000000000000000000000000000000000000000000000000000600052602260045260246000fd5b6000600282049050600182168061117b57607f821691505b60208210810361118e5761118d611134565b5b50919050565b7f47616d6520616c72656164792065786973747300000000000000000000000000600082015250565b60006111ca601383610eeb565b91506111d582611194565b602082019050919050565b600060208201905081810360008301526111f9816111bd565b905091905056fea2646970667358221220d30c7e6f9e4b919f5a909bb115a6ef28a03c0618271869d7404d0e563c54240f64736f6c634300080d0033",
  "immutableReferences": {},
  "source": "// SPDX-License-Identifier: MIT\npragma solidity >=0.6.0 <0.9.0;\n\ncontract TournamentScore {\n    // Event to emit when a game is added\n    event GameAdded(\n        string tournament_id,\n        uint256 game_id,\n        string game_type,\n        string loser_name,\n        uint256 loser_score,\n        string winner_name,\n        uint256 winner_score\n    );\n\n\t// event TournamentInfoTracked(\n\t// \tstring\ttournament_id,\n\t// \tuint256 game_id\n\t// );\n\n    // Struct definition\n    struct Tournament {\n        string tournament_id;\n        uint256 game_id;\n        string game_type;\n        string loser_name;\n        uint256 loser_score;\n        string winner_name;\n        uint256 winner_score;\n    }\n\n    // Mapping to store games by tournament ID and game ID\n    mapping(string => mapping(uint256 => Tournament)) public tournaments;\n\n\t// // Mapping to track all game IDs in a tournament\n    // mapping(string => uint256[]) public tournamentGameIds;\n\n    // Function to add a game\n    function addGame(\n        string memory _tournament_id,\n        uint256 _game_id,\n        string memory _game_type,\n        string memory _loser_name,\n        uint256 _loser_score,\n        string memory _winner_name,\n        uint256 _winner_score\n    ) public {\n        // Ensure the game doesn't already exist\n        require(\n            bytes(tournaments[_tournament_id][_game_id].tournament_id).length == 0,\n            \"Game already exists\"\n        );\n\n        // Add the game to the mapping\n        tournaments[_tournament_id][_game_id] = Tournament(\n            _tournament_id,\n            _game_id,\n            _game_type,\n            _loser_name,\n            _loser_score,\n            _winner_name,\n            _winner_score\n        );\n\n        // Emit the GameAdded event\n        emit GameAdded(\n            _tournament_id,\n            _game_id,\n            _game_type,\n            _loser_name,\n            _loser_score,\n            _winner_name,\n            _winner_score\n        );\n    }\n\n    // // Function to retrieve a game\n    // function getGame(string memory _tournament_id, uint256 _game_id)\n    //     public\n    //     view\n    //     returns (Tournament memory)\n    // {\n    //     return tournaments[_tournament_id][_game_id];\n    // }\n\n\tfunction getGame(string memory _tournament_id, uint256 _game_id)\n\t\tpublic\n\t\tview\n\t\treturns (Tournament memory)\n\t{\n\t\tTournament memory game = tournaments[_tournament_id][_game_id];\n\t\treturn game;\n\t}\n\n\tfunction getTournamentInfo(string memory _tournament_id, uint256 _game_id)\n\t\tpublic\n\t\treturns (Tournament memory)\n\t{\n\t\tTournament memory all_data = tournaments[_tournament_id][_game_id];\n\t\treturn all_data;\n\n\t\t// emit TournamentInfoTracked(_tournament_id, _game_id);\n\t}\n\n\n}\n\n\n\n\n",
  "sourcePath": "/Users/tanya/play_py/contracts/TournamentScore.sol",
  "compiler": {
    "name": "solc",
    "version": "0.8.13+commit.abaa5c0e.Emscripten.clang"
  },
  "schemaVersion": "3.4.16",
  "updatedAt": "2025-01-20T13:31:13.520Z",
  "networkType": "ethereum",
  "devdoc": {
    "kind": "dev",
    "methods": {},
    "version": 1
  },
  "userdoc": {
    "kind": "user",
    "methods": {},
    "version": 1
  }
}