{
  "contractName": "TournamentScore",
  "abi": [
    {
      "anonymous": false,
      "inputs": [
        {
          "indexed": false,
          "internalType": "string",
          "name": "tournament_id",
          "type": "string"
        },
        {
          "indexed": false,
          "internalType": "uint256",
          "name": "game_id",
          "type": "uint256"
        },
        {
          "indexed": false,
          "internalType": "string",
          "name": "game_type",
          "type": "string"
        },
        {
          "indexed": false,
          "internalType": "string",
          "name": "loser_name",
          "type": "string"
        },
        {
          "indexed": false,
          "internalType": "uint256",
          "name": "loser_score",
          "type": "uint256"
        },
        {
          "indexed": false,
          "internalType": "string",
          "name": "winner_name",
          "type": "string"
        },
        {
          "indexed": false,
          "internalType": "uint256",
          "name": "winner_score",
          "type": "uint256"
        }
      ],
      "name": "GameAdded",
      "type": "event"
    },
    {
      "inputs": [
        {
          "internalType": "string",
          "name": "",
          "type": "string"
        },
        {
          "internalType": "uint256",
          "name": "",
          "type": "uint256"
        }
      ],
      "name": "tournaments",
      "outputs": [
        {
          "internalType": "string",
          "name": "tournament_id",
          "type": "string"
        },
        {
          "internalType": "uint256",
          "name": "game_id",
          "type": "uint256"
        },
        {
          "internalType": "string",
          "name": "game_type",
          "type": "string"
        },
        {
          "internalType": "string",
          "name": "loser_name",
          "type": "string"
        },
        {
          "internalType": "uint256",
          "name": "loser_score",
          "type": "uint256"
        },
        {
          "internalType": "string",
          "name": "winner_name",
          "type": "string"
        },
        {
          "internalType": "uint256",
          "name": "winner_score",
          "type": "uint256"
        }
      ],
      "stateMutability": "view",
      "type": "function",
      "constant": true
    },
    {
      "inputs": [
        {
          "internalType": "string",
          "name": "_tournament_id",
          "type": "string"
        },
        {
          "internalType": "uint256",
          "name": "_game_id",
          "type": "uint256"
        },
        {
          "internalType": "string",
          "name": "_game_type",
          "type": "string"
        },
        {
          "internalType": "string",
          "name": "_loser_name",
          "type": "string"
        },
        {
          "internalType": "uint256",
          "name": "_loser_score",
          "type": "uint256"
        },
        {
          "internalType": "string",
          "name": "_winner_name",
          "type": "string"
        },
        {
          "internalType": "uint256",
          "name": "_winner_score",
          "type": "uint256"
        }
      ],
      "name": "addGame",
      "outputs": [],
      "stateMutability": "nonpayable",
      "type": "function"
    },
    {
      "inputs": [
        {
          "internalType": "string",
          "name": "_tournament_id",
          "type": "string"
        },
        {
          "internalType": "uint256",
          "name": "_game_id",
          "type": "uint256"
        }
      ],
      "name": "getGame",
      "outputs": [
        {
          "components": [
            {
              "internalType": "string",
              "name": "tournament_id",
              "type": "string"
            },
            {
              "internalType": "uint256",
              "name": "game_id",
              "type": "uint256"
            },
            {
              "internalType": "string",
              "name": "game_type",
              "type": "string"
            },
            {
              "internalType": "string",
              "name": "loser_name",
              "type": "string"
            },
            {
              "internalType": "uint256",
              "name": "loser_score",
              "type": "uint256"
            },
            {
              "internalType": "string",
              "name": "winner_name",
              "type": "string"
            },
            {
              "internalType": "uint256",
              "name": "winner_score",
              "type": "uint256"
            }
          ],
          "internalType": "struct TournamentScore.Tournament",
          "name": "",
          "type": "tuple"
        }
      ],
      "stateMutability": "view",
      "type": "function",
      "constant": true
    }
  ],
  "bytecode": "0x608060405234801561001057600080fd5b50610f46806100206000396000f3fe608060405234801561001057600080fd5b50600436106100415760003560e01c80630be2ea7614610046578063407e134f14610076578063506a7d30146100ac575b600080fd5b610060600480360381019061005b9190610a35565b6100c8565b60405161006d9190610bd9565b60405180910390f35b610090600480360381019061008b9190610a35565b61037d565b6040516100a39796959493929190610c54565b60405180910390f35b6100c660048036038101906100c19190610cdf565b610602565b005b6100d06107c5565b600080846040516100e19190610e2d565b908152602001604051809103902060008481526020019081526020016000206040518060e001604052908160008201805461011b90610e73565b80601f016020809104026020016040519081016040528092919081815260200182805461014790610e73565b80156101945780601f1061016957610100808354040283529160200191610194565b820191906000526020600020905b81548152906001019060200180831161017757829003601f168201915b50505050508152602001600182015481526020016002820180546101b790610e73565b80601f01602080910402602001604051908101604052809291908181526020018280546101e390610e73565b80156102305780601f1061020557610100808354040283529160200191610230565b820191906000526020600020905b81548152906001019060200180831161021357829003601f168201915b5050505050815260200160038201805461024990610e73565b80601f016020809104026020016040519081016040528092919081815260200182805461027590610e73565b80156102c25780601f10610297576101008083540402835291602001916102c2565b820191906000526020600020905b8154815290600101906020018083116102a557829003601f168201915b50505050508152602001600482015481526020016005820180546102e590610e73565b80601f016020809104026020016040519081016040528092919081815260200182805461031190610e73565b801561035e5780601f106103335761010080835404028352916020019161035e565b820191906000526020600020905b81548152906001019060200180831161034157829003601f168201915b5050505050815260200160068201548152505090508091505092915050565b600082805160208101820180518482526020830160208501208183528095505050505050602052806000526040600020600091509150508060000180546103c390610e73565b80601f01602080910402602001604051908101604052809291908181526020018280546103ef90610e73565b801561043c5780601f106104115761010080835404028352916020019161043c565b820191906000526020600020905b81548152906001019060200180831161041f57829003601f168201915b50505050509080600101549080600201805461045790610e73565b80601f016020809104026020016040519081016040528092919081815260200182805461048390610e73565b80156104d05780601f106104a5576101008083540402835291602001916104d0565b820191906000526020600020905b8154815290600101906020018083116104b357829003601f168201915b5050505050908060030180546104e590610e73565b80601f016020809104026020016040519081016040528092919081815260200182805461051190610e73565b801561055e5780601f106105335761010080835404028352916020019161055e565b820191906000526020600020905b81548152906001019060200180831161054157829003601f168201915b50505050509080600401549080600501805461057990610e73565b80601f01602080910402602001604051908101604052809291908181526020018280546105a590610e73565b80156105f25780601f106105c7576101008083540402835291602001916105f2565b820191906000526020600020905b8154815290600101906020018083116105d557829003601f168201915b5050505050908060060154905087565b600080886040516106139190610e2d565b90815260200160405180910390206000888152602001908152602001600020600001805461064090610e73565b905014610682576040517f08c379a000000000000000000000000000000000000000000000000000000000815260040161067990610ef0565b60405180910390fd5b6040518060e00160405280888152602001878152602001868152602001858152602001848152602001838152602001828152506000886040516106c59190610e2d565b908152602001604051809103902060008881526020019081526020016000206000820151816000019080519060200190610700929190610802565b50602082015181600101556040820151816002019080519060200190610727929190610802565b506060820151816003019080519060200190610744929190610802565b506080820151816004015560a082015181600501908051906020019061076b929190610802565b5060c082015181600601559050507f09f3615c927c980ac3f96f076b232ab8138c9c03f6162c2d8bd2aaa0bcb0d9a9878787878787876040516107b49796959493929190610c54565b60405180910390a150505050505050565b6040518060e00160405280606081526020016000815260200160608152602001606081526020016000815260200160608152602001600081525090565b82805461080e90610e73565b90600052602060002090601f0160209004810192826108305760008555610877565b82601f1061084957805160ff1916838001178555610877565b82800160010185558215610877579182015b8281111561087657825182559160200191906001019061085b565b5b5090506108849190610888565b5090565b5b808211156108a1576000816000905550600101610889565b5090565b6000604051905090565b600080fd5b600080fd5b600080fd5b600080fd5b6000601f19601f8301169050919050565b7f4e487b7100000000000000000000000000000000000000000000000000000000600052604160045260246000fd5b61090c826108c3565b810181811067ffffffffffffffff8211171561092b5761092a6108d4565b5b80604052505050565b600061093e6108a5565b905061094a8282610903565b919050565b600067ffffffffffffffff82111561096a576109696108d4565b5b610973826108c3565b9050602081019050919050565b82818337600083830152505050565b60006109a261099d8461094f565b610934565b9050828152602081018484840111156109be576109bd6108be565b5b6109c9848285610980565b509392505050565b600082601f8301126109e6576109e56108b9565b5b81356109f684826020860161098f565b91505092915050565b6000819050919050565b610a12816109ff565b8114610a1d57600080fd5b50565b600081359050610a2f81610a09565b92915050565b60008060408385031215610a4c57610a4b6108af565b5b600083013567ffffffffffffffff811115610a6a57610a696108b4565b5b610a76858286016109d1565b9250506020610a8785828601610a20565b9150509250929050565b600081519050919050565b600082825260208201905092915050565b60005b83811015610acb578082015181840152602081019050610ab0565b83811115610ada576000848401525b50505050565b6000610aeb82610a91565b610af58185610a9c565b9350610b05818560208601610aad565b610b0e816108c3565b840191505092915050565b610b22816109ff565b82525050565b600060e0830160008301518482036000860152610b458282610ae0565b9150506020830151610b5a6020860182610b19565b5060408301518482036040860152610b728282610ae0565b91505060608301518482036060860152610b8c8282610ae0565b9150506080830151610ba16080860182610b19565b5060a083015184820360a0860152610bb98282610ae0565b91505060c0830151610bce60c0860182610b19565b508091505092915050565b60006020820190508181036000830152610bf38184610b28565b905092915050565b600082825260208201905092915050565b6000610c1782610a91565b610c218185610bfb565b9350610c31818560208601610aad565b610c3a816108c3565b840191505092915050565b610c4e816109ff565b82525050565b600060e0820190508181036000830152610c6e818a610c0c565b9050610c7d6020830189610c45565b8181036040830152610c8f8188610c0c565b90508181036060830152610ca38187610c0c565b9050610cb26080830186610c45565b81810360a0830152610cc48185610c0c565b9050610cd360c0830184610c45565b98975050505050505050565b600080600080600080600060e0888a031215610cfe57610cfd6108af565b5b600088013567ffffffffffffffff811115610d1c57610d1b6108b4565b5b610d288a828b016109d1565b9750506020610d398a828b01610a20565b965050604088013567ffffffffffffffff811115610d5a57610d596108b4565b5b610d668a828b016109d1565b955050606088013567ffffffffffffffff811115610d8757610d866108b4565b5b610d938a828b016109d1565b9450506080610da48a828b01610a20565b93505060a088013567ffffffffffffffff811115610dc557610dc46108b4565b5b610dd18a828b016109d1565b92505060c0610de28a828b01610a20565b91505092959891949750929550565b600081905092915050565b6000610e0782610a91565b610e118185610df1565b9350610e21818560208601610aad565b80840191505092915050565b6000610e398284610dfc565b915081905092915050565b7f4e487b7100000000000000000000000000000000000000000000000000000000600052602260045260246000fd5b60006002820490506001821680610e8b57607f821691505b602082108103610e9e57610e9d610e44565b5b50919050565b7f47616d6520616c72656164792065786973747300000000000000000000000000600082015250565b6000610eda601383610bfb565b9150610ee582610ea4565b602082019050919050565b60006020820190508181036000830152610f0981610ecd565b905091905056fea26469706673582212209cdfa862d42f1b91b68f86045b1d5b8ee2ee8658836759d5876747b44a0eb23e64736f6c634300080d0033",
  "immutableReferences": {},
  "source": "// SPDX-License-Identifier: MIT\npragma solidity >=0.6.0 <0.9.0;\n\ncontract TournamentScore {\n    // Event to emit when a game is added\n    event GameAdded(\n        string tournament_id,\n        uint256 game_id,\n        string game_type,\n        string loser_name,\n        uint256 loser_score,\n        string winner_name,\n        uint256 winner_score\n    );\n\n    // Struct definition\n    struct Tournament {\n        string tournament_id;\n        uint256 game_id;\n        string game_type;\n        string loser_name;\n        uint256 loser_score;\n        string winner_name;\n        uint256 winner_score;\n    }\n\n    // Mapping to store games by tournament ID and game ID\n    mapping(string => mapping(uint256 => Tournament)) public tournaments;\n\n    // Function to add a game\n    function addGame(\n        string memory _tournament_id,\n        uint256 _game_id,\n        string memory _game_type,\n        string memory _loser_name,\n        uint256 _loser_score,\n        string memory _winner_name,\n        uint256 _winner_score\n    ) public {\n        // Ensure the game doesn't already exist\n        require(\n            bytes(tournaments[_tournament_id][_game_id].tournament_id).length == 0,\n            \"Game already exists\"\n        );\n\n        // Add the game to the mapping\n        tournaments[_tournament_id][_game_id] = Tournament(\n            _tournament_id,\n            _game_id,\n            _game_type,\n            _loser_name,\n            _loser_score,\n            _winner_name,\n            _winner_score\n        );\n\n        // Emit the GameAdded event\n        emit GameAdded(\n            _tournament_id,\n            _game_id,\n            _game_type,\n            _loser_name,\n            _loser_score,\n            _winner_name,\n            _winner_score\n        );\n    }\n\n    // // Function to retrieve a game\n    // function getGame(string memory _tournament_id, uint256 _game_id)\n    //     public\n    //     view\n    //     returns (Tournament memory)\n    // {\n    //     return tournaments[_tournament_id][_game_id];\n    // }\n\n\tfunction getGame(string memory _tournament_id, uint256 _game_id)\n\t\tpublic\n\t\tview\n\t\treturns (Tournament memory)\n\t{\n\t\tTournament memory game = tournaments[_tournament_id][_game_id];\n\t\treturn game;\n\t}\n\n}\n",
  "sourcePath": "/Users/tanya/play_py/contracts/TournamentScore.sol",
  "compiler": {
    "name": "solc",
    "version": "0.8.13+commit.abaa5c0e.Emscripten.clang"
  },
  "schemaVersion": "3.4.16",
  "updatedAt": "2025-01-16T15:02:14.911Z",
  "networkType": "ethereum",
  "devdoc": {
    "kind": "dev",
    "methods": {},
    "version": 1
  },
  "userdoc": {
    "kind": "user",
    "methods": {},
    "version": 1
  }
}