{
  "contractName": "WinnerStorage",
  "abi": [
    {
      "anonymous": false,
      "inputs": [
        {
          "indexed": false,
          "internalType": "uint256",
          "name": "oldscore",
          "type": "uint256"
        },
        {
          "indexed": false,
          "internalType": "uint256",
          "name": "newscore",
          "type": "uint256"
        }
      ],
      "name": "scoreUpdated",
      "type": "event"
    },
    {
      "inputs": [],
      "name": "score",
      "outputs": [
        {
          "internalType": "uint256",
          "name": "",
          "type": "uint256"
        }
      ],
      "stateMutability": "view",
      "type": "function",
      "constant": true
    },
    {
      "inputs": [
        {
          "internalType": "uint256",
          "name": "_score",
          "type": "uint256"
        }
      ],
      "name": "storeScore",
      "outputs": [],
      "stateMutability": "nonpayable",
      "type": "function"
    },
    {
      "inputs": [],
      "name": "retrieve",
      "outputs": [
        {
          "internalType": "uint256",
          "name": "",
          "type": "uint256"
        }
      ],
      "stateMutability": "view",
      "type": "function",
      "constant": true
    }
  ],
  "bytecode": "0x608060405234801561001057600080fd5b506101e8806100206000396000f3fe608060405234801561001057600080fd5b50600436106100415760003560e01c80632e64cec114610046578063a0ace78714610064578063efedc66914610080575b600080fd5b61004e61009e565b60405161005b9190610110565b60405180910390f35b61007e6004803603810190610079919061015c565b6100a7565b005b6100886100f1565b6040516100959190610110565b60405180910390f35b60008054905090565b600080549050816000819055507f872609d028abb24e8ff04516c3afd23b666803091284b2d1ac5b74a5703289ad81836040516100e5929190610189565b60405180910390a15050565b60005481565b6000819050919050565b61010a816100f7565b82525050565b60006020820190506101256000830184610101565b92915050565b600080fd5b610139816100f7565b811461014457600080fd5b50565b60008135905061015681610130565b92915050565b6000602082840312156101725761017161012b565b5b600061018084828501610147565b91505092915050565b600060408201905061019e6000830185610101565b6101ab6020830184610101565b939250505056fea26469706673582212206e7c2c1b57acebc63fd9163e91aad4638a4470703879490fd76b9c8304eec93c64736f6c634300080d0033",
  "immutableReferences": {},
  "source": "pragma solidity >=0.6.0 <0.9.0;\n\ncontract WinnerStorage {\n    uint256 public score;\n\n    // Event to emit when score is updated\n    event scoreUpdated(uint256 oldscore, uint256 newscore);\n\n    // Function to store a score\n    function storeScore(uint256 _score) public {\n        uint256 oldscore = score; // Store the current score value\n        score = _score; // Update the score variable\n        emit scoreUpdated(oldscore, _score); // Emit the event\n    }\n\n    // Function to retrieve the score\n    function retrieve() public view returns (uint256) {\n        return score;\n    }\n}",
  "sourcePath": "/Users/tanya/blockchain-for-42/contracts/WinnerStorage.sol",
  "compiler": {
    "name": "solc",
    "version": "0.8.13+commit.abaa5c0e.Emscripten.clang"
  },
  "schemaVersion": "3.4.16",
  "updatedAt": "2024-11-26T13:27:18.636Z",
  "networkType": "ethereum",
  "devdoc": {
    "kind": "dev",
    "methods": {},
    "version": 1
  },
  "userdoc": {
    "kind": "user",
    "methods": {},
    "version": 1
  }
}